{
  "_format": "hh-sol-artifact-1",
  "contractName": "MaggooNFT",
  "sourceName": "contracts/tokens/MaggooNFT.sol",
  "abi": [
    {
      "inputs": [
        {
          "internalType": "address",
          "name": "_maggoo",
          "type": "address"
        }
      ],
      "stateMutability": "nonpayable",
      "type": "constructor"
    },
    {
      "inputs": [],
      "name": "ERC1155Base__ArrayLengthMismatch",
      "type": "error"
    },
    {
      "inputs": [],
      "name": "ERC1155Base__BalanceQueryZeroAddress",
      "type": "error"
    },
    {
      "inputs": [],
      "name": "ERC1155Base__BurnExceedsBalance",
      "type": "error"
    },
    {
      "inputs": [],
      "name": "ERC1155Base__BurnFromZeroAddress",
      "type": "error"
    },
    {
      "inputs": [],
      "name": "ERC1155Base__ERC1155ReceiverNotImplemented",
      "type": "error"
    },
    {
      "inputs": [],
      "name": "ERC1155Base__ERC1155ReceiverRejected",
      "type": "error"
    },
    {
      "inputs": [],
      "name": "ERC1155Base__MintToZeroAddress",
      "type": "error"
    },
    {
      "inputs": [],
      "name": "ERC1155Base__NotOwnerOrApproved",
      "type": "error"
    },
    {
      "inputs": [],
      "name": "ERC1155Base__SelfApproval",
      "type": "error"
    },
    {
      "inputs": [],
      "name": "ERC1155Base__TransferExceedsBalance",
      "type": "error"
    },
    {
      "inputs": [],
      "name": "ERC1155Base__TransferToZeroAddress",
      "type": "error"
    },
    {
      "inputs": [],
      "name": "ERC165Base__InvalidInterfaceId",
      "type": "error"
    },
    {
      "inputs": [],
      "name": "EnumerableSet__IndexOutOfBounds",
      "type": "error"
    },
    {
      "inputs": [],
      "name": "UnauthorizedAction",
      "type": "error"
    },
    {
      "anonymous": false,
      "inputs": [
        {
          "indexed": true,
          "internalType": "address",
          "name": "account",
          "type": "address"
        },
        {
          "indexed": true,
          "internalType": "address",
          "name": "operator",
          "type": "address"
        },
        {
          "indexed": false,
          "internalType": "bool",
          "name": "approved",
          "type": "bool"
        }
      ],
      "name": "ApprovalForAll",
      "type": "event"
    },
    {
      "anonymous": false,
      "inputs": [
        {
          "indexed": true,
          "internalType": "address",
          "name": "operator",
          "type": "address"
        },
        {
          "indexed": true,
          "internalType": "address",
          "name": "from",
          "type": "address"
        },
        {
          "indexed": true,
          "internalType": "address",
          "name": "to",
          "type": "address"
        },
        {
          "indexed": false,
          "internalType": "uint256[]",
          "name": "ids",
          "type": "uint256[]"
        },
        {
          "indexed": false,
          "internalType": "uint256[]",
          "name": "values",
          "type": "uint256[]"
        }
      ],
      "name": "TransferBatch",
      "type": "event"
    },
    {
      "anonymous": false,
      "inputs": [
        {
          "indexed": true,
          "internalType": "address",
          "name": "operator",
          "type": "address"
        },
        {
          "indexed": true,
          "internalType": "address",
          "name": "from",
          "type": "address"
        },
        {
          "indexed": true,
          "internalType": "address",
          "name": "to",
          "type": "address"
        },
        {
          "indexed": false,
          "internalType": "uint256",
          "name": "id",
          "type": "uint256"
        },
        {
          "indexed": false,
          "internalType": "uint256",
          "name": "value",
          "type": "uint256"
        }
      ],
      "name": "TransferSingle",
      "type": "event"
    },
    {
      "anonymous": false,
      "inputs": [
        {
          "indexed": false,
          "internalType": "string",
          "name": "value",
          "type": "string"
        },
        {
          "indexed": true,
          "internalType": "uint256",
          "name": "tokenId",
          "type": "uint256"
        }
      ],
      "name": "URI",
      "type": "event"
    },
    {
      "inputs": [
        {
          "internalType": "uint256",
          "name": "id",
          "type": "uint256"
        }
      ],
      "name": "accountsByToken",
      "outputs": [
        {
          "internalType": "address[]",
          "name": "",
          "type": "address[]"
        }
      ],
      "stateMutability": "view",
      "type": "function"
    },
    {
      "inputs": [
        {
          "internalType": "address",
          "name": "account",
          "type": "address"
        },
        {
          "internalType": "uint256",
          "name": "id",
          "type": "uint256"
        }
      ],
      "name": "balanceOf",
      "outputs": [
        {
          "internalType": "uint256",
          "name": "",
          "type": "uint256"
        }
      ],
      "stateMutability": "view",
      "type": "function"
    },
    {
      "inputs": [
        {
          "internalType": "address[]",
          "name": "accounts",
          "type": "address[]"
        },
        {
          "internalType": "uint256[]",
          "name": "ids",
          "type": "uint256[]"
        }
      ],
      "name": "balanceOfBatch",
      "outputs": [
        {
          "internalType": "uint256[]",
          "name": "",
          "type": "uint256[]"
        }
      ],
      "stateMutability": "view",
      "type": "function"
    },
    {
      "inputs": [
        {
          "internalType": "address",
          "name": "account",
          "type": "address"
        },
        {
          "internalType": "uint256",
          "name": "id",
          "type": "uint256"
        },
        {
          "internalType": "uint256",
          "name": "amount",
          "type": "uint256"
        }
      ],
      "name": "burn",
      "outputs": [],
      "stateMutability": "nonpayable",
      "type": "function"
    },
    {
      "inputs": [
        {
          "internalType": "uint256",
          "name": "",
          "type": "uint256"
        }
      ],
      "name": "burnedMaggos",
      "outputs": [
        {
          "internalType": "uint256",
          "name": "",
          "type": "uint256"
        }
      ],
      "stateMutability": "view",
      "type": "function"
    },
    {
      "inputs": [
        {
          "internalType": "uint256",
          "name": "tokenId",
          "type": "uint256"
        }
      ],
      "name": "earnings",
      "outputs": [
        {
          "internalType": "uint256",
          "name": "",
          "type": "uint256"
        }
      ],
      "stateMutability": "view",
      "type": "function"
    },
    {
      "inputs": [
        {
          "internalType": "uint256",
          "name": "tokenId",
          "type": "uint256"
        }
      ],
      "name": "fanToken",
      "outputs": [
        {
          "internalType": "address",
          "name": "",
          "type": "address"
        }
      ],
      "stateMutability": "view",
      "type": "function"
    },
    {
      "inputs": [
        {
          "internalType": "uint256",
          "name": "tokenId",
          "type": "uint256"
        }
      ],
      "name": "hashPower",
      "outputs": [
        {
          "internalType": "uint256",
          "name": "",
          "type": "uint256"
        }
      ],
      "stateMutability": "view",
      "type": "function"
    },
    {
      "inputs": [
        {
          "internalType": "address",
          "name": "account",
          "type": "address"
        },
        {
          "internalType": "address",
          "name": "operator",
          "type": "address"
        }
      ],
      "name": "isApprovedForAll",
      "outputs": [
        {
          "internalType": "bool",
          "name": "",
          "type": "bool"
        }
      ],
      "stateMutability": "view",
      "type": "function"
    },
    {
      "inputs": [
        {
          "internalType": "uint256",
          "name": "tokenId",
          "type": "uint256"
        }
      ],
      "name": "isBase",
      "outputs": [
        {
          "internalType": "bool",
          "name": "",
          "type": "bool"
        }
      ],
      "stateMutability": "view",
      "type": "function"
    },
    {
      "inputs": [
        {
          "internalType": "uint256",
          "name": "tokenId",
          "type": "uint256"
        }
      ],
      "name": "level",
      "outputs": [
        {
          "internalType": "uint256",
          "name": "",
          "type": "uint256"
        }
      ],
      "stateMutability": "view",
      "type": "function"
    },
    {
      "inputs": [],
      "name": "maggoo",
      "outputs": [
        {
          "internalType": "contract IMaggoo",
          "name": "",
          "type": "address"
        }
      ],
      "stateMutability": "view",
      "type": "function"
    },
    {
      "inputs": [],
      "name": "maggooFactory",
      "outputs": [
        {
          "internalType": "address",
          "name": "",
          "type": "address"
        }
      ],
      "stateMutability": "view",
      "type": "function"
    },
    {
      "inputs": [
        {
          "internalType": "address",
          "name": "account",
          "type": "address"
        },
        {
          "internalType": "uint256",
          "name": "id",
          "type": "uint256"
        },
        {
          "internalType": "uint256",
          "name": "amount",
          "type": "uint256"
        }
      ],
      "name": "mint",
      "outputs": [],
      "stateMutability": "nonpayable",
      "type": "function"
    },
    {
      "inputs": [
        {
          "internalType": "uint256",
          "name": "",
          "type": "uint256"
        }
      ],
      "name": "mintedMaggos",
      "outputs": [
        {
          "internalType": "uint256",
          "name": "",
          "type": "uint256"
        }
      ],
      "stateMutability": "view",
      "type": "function"
    },
    {
      "inputs": [],
      "name": "name",
      "outputs": [
        {
          "internalType": "string",
          "name": "",
          "type": "string"
        }
      ],
      "stateMutability": "pure",
      "type": "function"
    },
    {
      "inputs": [
        {
          "internalType": "uint256",
          "name": "tokenId",
          "type": "uint256"
        },
        {
          "internalType": "uint256",
          "name": "salePrice",
          "type": "uint256"
        }
      ],
      "name": "royaltyInfo",
      "outputs": [
        {
          "internalType": "address",
          "name": "receiver",
          "type": "address"
        },
        {
          "internalType": "uint256",
          "name": "amount",
          "type": "uint256"
        }
      ],
      "stateMutability": "view",
      "type": "function"
    },
    {
      "inputs": [
        {
          "internalType": "address",
          "name": "from",
          "type": "address"
        },
        {
          "internalType": "address",
          "name": "to",
          "type": "address"
        },
        {
          "internalType": "uint256[]",
          "name": "ids",
          "type": "uint256[]"
        },
        {
          "internalType": "uint256[]",
          "name": "amounts",
          "type": "uint256[]"
        },
        {
          "internalType": "bytes",
          "name": "data",
          "type": "bytes"
        }
      ],
      "name": "safeBatchTransferFrom",
      "outputs": [],
      "stateMutability": "nonpayable",
      "type": "function"
    },
    {
      "inputs": [
        {
          "internalType": "address",
          "name": "from",
          "type": "address"
        },
        {
          "internalType": "address",
          "name": "to",
          "type": "address"
        },
        {
          "internalType": "uint256",
          "name": "id",
          "type": "uint256"
        },
        {
          "internalType": "uint256",
          "name": "amount",
          "type": "uint256"
        },
        {
          "internalType": "bytes",
          "name": "data",
          "type": "bytes"
        }
      ],
      "name": "safeTransferFrom",
      "outputs": [],
      "stateMutability": "nonpayable",
      "type": "function"
    },
    {
      "inputs": [
        {
          "internalType": "address",
          "name": "operator",
          "type": "address"
        },
        {
          "internalType": "bool",
          "name": "status",
          "type": "bool"
        }
      ],
      "name": "setApprovalForAll",
      "outputs": [],
      "stateMutability": "nonpayable",
      "type": "function"
    },
    {
      "inputs": [
        {
          "internalType": "bytes4",
          "name": "interfaceId",
          "type": "bytes4"
        }
      ],
      "name": "supportsInterface",
      "outputs": [
        {
          "internalType": "bool",
          "name": "",
          "type": "bool"
        }
      ],
      "stateMutability": "view",
      "type": "function"
    },
    {
      "inputs": [],
      "name": "symbol",
      "outputs": [
        {
          "internalType": "string",
          "name": "",
          "type": "string"
        }
      ],
      "stateMutability": "pure",
      "type": "function"
    },
    {
      "inputs": [
        {
          "internalType": "address",
          "name": "account",
          "type": "address"
        }
      ],
      "name": "tokensByAccount",
      "outputs": [
        {
          "internalType": "uint256[]",
          "name": "",
          "type": "uint256[]"
        }
      ],
      "stateMutability": "view",
      "type": "function"
    },
    {
      "inputs": [
        {
          "internalType": "uint256",
          "name": "id",
          "type": "uint256"
        }
      ],
      "name": "totalHolders",
      "outputs": [
        {
          "internalType": "uint256",
          "name": "",
          "type": "uint256"
        }
      ],
      "stateMutability": "view",
      "type": "function"
    },
    {
      "inputs": [],
      "name": "totalSupply",
      "outputs": [
        {
          "internalType": "uint256",
          "name": "",
          "type": "uint256"
        }
      ],
      "stateMutability": "view",
      "type": "function"
    },
    {
      "inputs": [
        {
          "internalType": "uint256",
          "name": "id",
          "type": "uint256"
        }
      ],
      "name": "totalSupply",
      "outputs": [
        {
          "internalType": "uint256",
          "name": "",
          "type": "uint256"
        }
      ],
      "stateMutability": "view",
      "type": "function"
    },
    {
      "inputs": [
        {
          "internalType": "uint256",
          "name": "tokenId",
          "type": "uint256"
        }
      ],
      "name": "uri",
      "outputs": [
        {
          "internalType": "string",
          "name": "",
          "type": "string"
        }
      ],
      "stateMutability": "view",
      "type": "function"
    },
    {
      "inputs": [],
      "name": "validator",
      "outputs": [
        {
          "internalType": "address",
          "name": "",
          "type": "address"
        }
      ],
      "stateMutability": "view",
      "type": "function"
    }
  ],
  "bytecode": "0x60806040523480156200001157600080fd5b50604051620023cc380380620023cc8339810160408190526200003491620000f9565b620000486301ffc9a760e01b600162000082565b6200005c636cdb3d1360e11b600162000082565b600080546001600160a01b0319166001600160a01b03929092169190911790556200012b565b6001600160e01b03198083169003620000ae5760405163b0a19dd560e01b815260040160405180910390fd5b6001600160e01b03199190911660009081527ffc606c433378e3a7e0a6a531deac289b66caa1b4aa8554fd4ab2c6f1570f92d860205260409020805460ff1916911515919091179055565b6000602082840312156200010c57600080fd5b81516001600160a01b03811681146200012457600080fd5b9392505050565b612291806200013b6000396000f3fe608060405234801561001057600080fd5b50600436106101c35760003560e01c806348e1aa16116100f9578063a22cb46511610097578063e985e9c511610071578063e985e9c514610416578063f242432a14610429578063f5298aca1461043c578063f603fbbe1461044f57600080fd5b8063a22cb465146103dd578063bd85b039146103f0578063e4e9cdfc1461040357600080fd5b806367a9db86116100d357806367a9db86146103755780636dcfd8411461038857806385bff2e7146103a857806395d89b41146103bb57600080fd5b806348e1aa161461032f5780634e1273f4146103425780635ae108941461036257600080fd5b8063156e29f6116101665780632a55205a116101405780632a55205a146102cf5780632eb2c2d614610301578063355b8da8146103145780633a5381b51461032757600080fd5b8063156e29f61461029f578063178f146e146102b457806318160ddd146102c757600080fd5b806306fdde03116101a257806306fdde03146102245780630e89341c146102545780630e8be64e1461026757806313ba55df1461028c57600080fd5b8062fdd58e146101c857806301ffc9a7146101ee57806305c58df214610211575b600080fd5b6101db6101d6366004611996565b610462565b6040519081526020015b60405180910390f35b6102016101fc3660046119d8565b610477565b60405190151581526020016101e5565b6101db61021f3660046119fc565b6104b8565b60408051808201909152600b81526a135051d1d3d3c81310539160aa1b60208201525b6040516101e59190611a65565b6102476102623660046119fc565b61052d565b6000546001600160a01b03165b6040516001600160a01b0390911681526020016101e5565b6101db61029a3660046119fc565b6105a4565b6102b26102ad366004611a78565b6105af565b005b600054610274906001600160a01b031681565b6101db61062b565b6102e26102dd366004611aad565b61065c565b604080516001600160a01b0390931683526020830191909152016101e5565b6102b261030f366004611c2b565b6106e1565b6101db6103223660046119fc565b610733565b610274610754565b6101db61033d3660046119fc565b6107d1565b610355610350366004611cd9565b610809565b6040516101e59190611de1565b6101db6103703660046119fc565b610974565b6101db6103833660046119fc565b6109ac565b61039b6103963660046119fc565b6109bc565b6040516101e59190611df4565b6103556103b6366004611e41565b6109c7565b6040805180820190915260068152654d4147474f4f60d01b6020820152610247565b6102b26103eb366004611e6c565b6109d2565b6101db6103fe3660046119fc565b610a86565b6102016104113660046119fc565b610ab9565b610201610424366004611ea5565b610b2d565b6102b2610437366004611ed3565b610b7a565b6102b261044a366004611a78565b610bc5565b61027461045d3660046119fc565b610c32565b600061046e8383610ca6565b90505b92915050565b6001600160e01b0319811660009081527ffc606c433378e3a7e0a6a531deac289b66caa1b4aa8554fd4ab2c6f1570f92d8602052604081205460ff16610471565b60008054604051632c487cab60e21b8152306004820152602481018490526001600160a01b039091169063b121f2ac906044015b602060405180830381865afa158015610509573d6000803e3d6000fd5b505050506040513d601f19601f820116820180604052508101906104719190611f3c565b60005460405162ebac5b60e81b8152306004820152602481018390526060916001600160a01b03169063ebac5b0090604401600060405180830381865afa15801561057c573d6000803e3d6000fd5b505050506040513d6000823e601f3d908101601f191682016040526104719190810190611f55565b600061047182610d04565b6000546001600160a01b031633146105da5760405163421c007d60e11b815260040160405180910390fd5b6105f583838360405180602001604052806000815250610d3a565b506001805480820182556000919091527fb10e2d527612073b26eecdfd717e6a320cf44b4afac2b0732d9fcbe2b7fa0cf6015550565b6002546001546000918291111561064c576002546001546104719190611fed565b6001546002546104719190611fed565b600080546040516339e6004d60e21b8152306004820152602481018590526044810184905282916001600160a01b03169063e7980134906064016040805180830381865afa1580156106b2573d6000803e3d6000fd5b505050506040513d601f19601f820116820180604052508101906106d69190612000565b909590945092505050565b6001600160a01b038516331480159061070157506106ff8533610b2d565b155b1561071e576040516212efed60e91b815260040160405180910390fd5b61072c338686868686610e14565b5050505050565b6002818154811061074357600080fd5b600091825260209091200154905081565b60008060009054906101000a90046001600160a01b03166001600160a01b0316631195e07e6040518163ffffffff1660e01b8152600401602060405180830381865afa1580156107a8573d6000803e3d6000fd5b505050506040513d601f19601f820116820180604052508101906107cc919061202e565b905090565b600080546040516307f201a560e11b8152306004820152602481018490526001600160a01b0390911690630fe4034a906044016104ec565b6060815183511461082d57604051633e7e0b6d60e11b815260040160405180910390fd5b825160008051602061223c8339815191529060009067ffffffffffffffff81111561085a5761085a611acf565b604051908082528060200260200182016040528015610883578160200160208202803683370190505b50905060005b855181101561096b5760006001600160a01b03168682815181106108af576108af61204b565b60200260200101516001600160a01b0316036108de5760405163db5d879760e01b815260040160405180910390fd5b8260008683815181106108f3576108f361204b565b60200260200101518152602001908152602001600020600087838151811061091d5761091d61204b565b60200260200101516001600160a01b03166001600160a01b03168152602001908152602001600020548282815181106109585761095861204b565b6020908102919091010152600101610889565b50949350505050565b60008054604051634cc55b6b60e01b8152306004820152602481018490526001600160a01b0390911690634cc55b6b906044016104ec565b6001818154811061074357600080fd5b606061047182610e38565b606061047182610f0c565b6001600160a01b03821633036109fb57604051637b30a93360e11b815260040160405180910390fd5b3360008181527f1799cf914cb0cb442ca7c7ac709ee40d0cb89e87351dc08d517fbda27d50c68c602090815260408083206001600160a01b03871680855290835292819020805460ff191686151590811790915590519081529192917f17307eab39ab6107e8899845ad3d59bd9653f200f220920489ca2b5937696c31910160405180910390a35050565b60008181527fb31c2c74f86ca3ce94d901f5f5bbe66f7161eec2f7b5aa0b75a86371436424ea6020526040812054610471565b60008054604051637c15c7f160e11b8152306004820152602481018490526001600160a01b039091169063f82b8fe290604401602060405180830381865afa158015610b09573d6000803e3d6000fd5b505050506040513d601f19601f820116820180604052508101906104719190612061565b6001600160a01b0391821660009081527f1799cf914cb0cb442ca7c7ac709ee40d0cb89e87351dc08d517fbda27d50c68c6020908152604080832093909416825291909152205460ff1690565b6001600160a01b0385163314801590610b9a5750610b988533610b2d565b155b15610bb7576040516212efed60e91b815260040160405180910390fd5b61072c338686868686610fd5565b6000546001600160a01b03163314610bf05760405163421c007d60e11b815260040160405180910390fd5b610bfb838383610ff1565b50600280546001810182556000919091527f405787fa12a823e0f2b7631cc41b3ba8828b3321ca811111fa75cd3aa3bb5ace015550565b6000805460405163297588d960e01b8152306004820152602481018490526001600160a01b039091169063297588d990604401602060405180830381865afa158015610c82573d6000803e3d6000fd5b505050506040513d601f19601f82011682018060405250810190610471919061202e565b60006001600160a01b038316610ccf5760405163db5d879760e01b815260040160405180910390fd5b60008051602061223c8339815191526000928352602090815260408084206001600160a01b0395909516845293905250205490565b60008181527fb31c2c74f86ca3ce94d901f5f5bbe66f7161eec2f7b5aa0b75a86371436424eb60205260408120610471906110f0565b6001600160a01b038416610d61576040516301c8efbf60e11b815260040160405180910390fd5b610d8033600086610d71876110fa565b610d7a876110fa565b86611145565b600083815260008051602061223c833981519152602090815260408083206001600160a01b038816845290915281208054849290610dbf90849061207e565b909155505060408051848152602081018490526001600160a01b0386169160009133917fc3d58168c5ae7397731d063d5bbf3d657854427343f4c083240f7aacaa2d0f6291015b60405180910390a450505050565b610e22868686868686611153565b610e308686868686866112fc565b505050505050565b60008181527fb31c2c74f86ca3ce94d901f5f5bbe66f7161eec2f7b5aa0b75a86371436424eb60205260408120606091610e71826110f0565b67ffffffffffffffff811115610e8957610e89611acf565b604051908082528060200260200182016040528015610eb2578160200160208202803683370190505b50905060005b610ec1836110f0565b811015610f0457610ed2838261141e565b828281518110610ee457610ee461204b565b6001600160a01b0390921660209283029190910190910152600101610eb8565b509392505050565b6001600160a01b03811660009081527fb31c2c74f86ca3ce94d901f5f5bbe66f7161eec2f7b5aa0b75a86371436424ec60205260408120606091610f4f826110f0565b67ffffffffffffffff811115610f6757610f67611acf565b604051908082528060200260200182016040528015610f90578160200160208202803683370190505b50905060005b610f9f836110f0565b811015610f0457610fb0838261141e565b828281518110610fc257610fc261204b565b6020908102919091010152600101610f96565b610fe386868686868661142a565b610e30868686868686611540565b6001600160a01b0383166110185760405163baa75df760e01b815260040160405180910390fd5b61104633846000611028866110fa565b611031866110fa565b60405180602001604052806000815250611145565b600082815260008051602061223c833981519152602090815260408083206001600160a01b0387168452918290529091205482111561109857604051634190713d60e01b815260040160405180910390fd5b6001600160a01b03841660008181526020838152604080832080548790039055805187815291820186905291929133917fc3d58168c5ae7397731d063d5bbf3d657854427343f4c083240f7aacaa2d0f629101610e06565b6000610471825490565b604080516001808252818301909252606091600091906020808301908036833701905050905082816000815181106111345761113461204b565b602090810291909101015292915050565b610e308686868686866115fc565b6001600160a01b03841661117a5760405163f5cadad560e01b815260040160405180910390fd5b815183511461119c57604051633e7e0b6d60e11b815260040160405180910390fd5b6111aa868686868686611145565b60008051602061223c83398151915260005b845181101561129b5760008582815181106111d9576111d961204b565b6020026020010151905060008583815181106111f7576111f761204b565b602090810291909101810151600084815286835260408082206001600160a01b038e1683529093529190912054909150808211156112485760405163119ac6bb60e31b815260040160405180910390fd5b6000838152602086815260408083206001600160a01b038e811685529252808320938590039093558a16815290812080546001959095019483929061128e90849061207e565b909155506111bc92505050565b50846001600160a01b0316866001600160a01b0316886001600160a01b03167f4a39dc06d4c0dbc64b70af90fd698a233a518aa5d07e595d983b8c0526c8f7fb87876040516112eb929190612091565b60405180910390a450505050505050565b6001600160a01b0384163b15610e305760405163bc197c8160e01b81526001600160a01b0385169063bc197c819061134090899089908890889088906004016120bf565b6020604051808303816000875af192505050801561137b575060408051601f3d908101601f191682019092526113789181019061211d565b60015b6113e45761138761213a565b806308c379a0036113c9575061139b612156565b806113a657506113cb565b8060405162461bcd60e51b81526004016113c09190611a65565b60405180910390fd5b505b60405163380147a960e01b815260040160405180910390fd5b6001600160e01b0319811663bc197c8160e01b1461141557604051633744db2960e01b815260040160405180910390fd5b50505050505050565b600061046e83836117e8565b6001600160a01b0384166114515760405163f5cadad560e01b815260040160405180910390fd5b611460868686610d71876110fa565b600083815260008051602061223c833981519152602081815260408084206001600160a01b038a16855290915290912054808411156114b25760405163119ac6bb60e31b815260040160405180910390fd5b6000858152602083815260408083206001600160a01b038b811685529252808320938790039093558716815290812080548592906114f190849061207e565b909155505060408051858152602081018590526001600160a01b038088169289821692918b16917fc3d58168c5ae7397731d063d5bbf3d657854427343f4c083240f7aacaa2d0f6291016112eb565b6001600160a01b0384163b15610e305760405163f23a6e6160e01b81526001600160a01b0385169063f23a6e619061158490899089908890889088906004016121e0565b6020604051808303816000875af19250505080156115bf575060408051601f3d908101601f191682019092526115bc9181019061211d565b60015b6115cb5761138761213a565b6001600160e01b0319811663f23a6e6160e01b1461141557604051633744db2960e01b815260040160405180910390fd5b836001600160a01b0316856001600160a01b031614610e30576001600160a01b0385811660009081527fb31c2c74f86ca3ce94d901f5f5bbe66f7161eec2f7b5aa0b75a86371436424ec6020526040808220928716825281207fb31c2c74f86ca3ce94d901f5f5bbe66f7161eec2f7b5aa0b75a86371436424ea927fb31c2c74f86ca3ce94d901f5f5bbe66f7161eec2f7b5aa0b75a86371436424eb929091905b87518110156117db5760008782815181106116ba576116ba61204b565b6020026020010151905060008111156117d25760008983815181106116e1576116e161204b565b6020026020010151905060006001600160a01b03168c6001600160a01b03160361172e576000818152602088905260408120805484929061172390849061207e565b909155506117639050565b816117398d83610ca6565b03611763576000818152602087905260409020611756908d611834565b506117618582611849565b505b6001600160a01b038b1661179a576000818152602088905260408120805484929061178f908490611fed565b909155506117d09050565b6117a48b82610ca6565b6000036117d05760008181526020879052604090206117c3908c611855565b506117ce848261186a565b505b505b5060010161169d565b5050505050505050505050565b8154600090821061180c5760405163e637bf3b60e01b815260040160405180910390fd5b8260000182815481106118215761182161204b565b9060005260206000200154905092915050565b600061046e836001600160a01b038416611876565b600061046e8383611876565b600061046e836001600160a01b03841661193b565b600061046e838361193b565b60008181526001830160205260408120548015611934578354600090859060001981019081106118a8576118a861204b565b90600052602060002001549050808560000160018403815481106118ce576118ce61204b565b600091825260208083209091019290925591825260018601905260409020819055835484908061190057611900612225565b6001900381819060005260206000200160009055905583600101600084815260200190815260200160002060009055600191505b5092915050565b6000818152600183016020526040812054610471575081546001808201845560008481526020808220909301849055845493815293810190915260409092205590565b6001600160a01b038116811461199357600080fd5b50565b600080604083850312156119a957600080fd5b82356119b48161197e565b946020939093013593505050565b6001600160e01b03198116811461199357600080fd5b6000602082840312156119ea57600080fd5b81356119f5816119c2565b9392505050565b600060208284031215611a0e57600080fd5b5035919050565b60005b83811015611a30578181015183820152602001611a18565b50506000910152565b60008151808452611a51816020860160208601611a15565b601f01601f19169290920160200192915050565b60208152600061046e6020830184611a39565b600080600060608486031215611a8d57600080fd5b8335611a988161197e565b95602085013595506040909401359392505050565b60008060408385031215611ac057600080fd5b50508035926020909101359150565b634e487b7160e01b600052604160045260246000fd5b601f8201601f1916810167ffffffffffffffff81118282101715611b0b57611b0b611acf565b6040525050565b600067ffffffffffffffff821115611b2c57611b2c611acf565b5060051b60200190565b600082601f830112611b4757600080fd5b81356020611b5482611b12565b604051611b618282611ae5565b83815260059390931b8501820192828101915086841115611b8157600080fd5b8286015b84811015611b9c5780358352918301918301611b85565b509695505050505050565b600067ffffffffffffffff821115611bc157611bc1611acf565b50601f01601f191660200190565b600082601f830112611be057600080fd5b8135611beb81611ba7565b604051611bf88282611ae5565b828152856020848701011115611c0d57600080fd5b82602086016020830137600092810160200192909252509392505050565b600080600080600060a08688031215611c4357600080fd5b8535611c4e8161197e565b94506020860135611c5e8161197e565b9350604086013567ffffffffffffffff80821115611c7b57600080fd5b611c8789838a01611b36565b94506060880135915080821115611c9d57600080fd5b611ca989838a01611b36565b93506080880135915080821115611cbf57600080fd5b50611ccc88828901611bcf565b9150509295509295909350565b60008060408385031215611cec57600080fd5b823567ffffffffffffffff80821115611d0457600080fd5b818501915085601f830112611d1857600080fd5b81356020611d2582611b12565b604051611d328282611ae5565b83815260059390931b8501820192828101915089841115611d5257600080fd5b948201945b83861015611d79578535611d6a8161197e565b82529482019490820190611d57565b96505086013592505080821115611d8f57600080fd5b50611d9c85828601611b36565b9150509250929050565b600081518084526020808501945080840160005b83811015611dd657815187529582019590820190600101611dba565b509495945050505050565b60208152600061046e6020830184611da6565b6020808252825182820181905260009190848201906040850190845b81811015611e355783516001600160a01b031683529284019291840191600101611e10565b50909695505050505050565b600060208284031215611e5357600080fd5b81356119f58161197e565b801515811461199357600080fd5b60008060408385031215611e7f57600080fd5b8235611e8a8161197e565b91506020830135611e9a81611e5e565b809150509250929050565b60008060408385031215611eb857600080fd5b8235611ec38161197e565b91506020830135611e9a8161197e565b600080600080600060a08688031215611eeb57600080fd5b8535611ef68161197e565b94506020860135611f068161197e565b93506040860135925060608601359150608086013567ffffffffffffffff811115611f3057600080fd5b611ccc88828901611bcf565b600060208284031215611f4e57600080fd5b5051919050565b600060208284031215611f6757600080fd5b815167ffffffffffffffff811115611f7e57600080fd5b8201601f81018413611f8f57600080fd5b8051611f9a81611ba7565b604051611fa78282611ae5565b828152866020848601011115611fbc57600080fd5b611fcd836020830160208701611a15565b9695505050505050565b634e487b7160e01b600052601160045260246000fd5b8181038181111561047157610471611fd7565b6000806040838503121561201357600080fd5b825161201e8161197e565b6020939093015192949293505050565b60006020828403121561204057600080fd5b81516119f58161197e565b634e487b7160e01b600052603260045260246000fd5b60006020828403121561207357600080fd5b81516119f581611e5e565b8082018082111561047157610471611fd7565b6040815260006120a46040830185611da6565b82810360208401526120b68185611da6565b95945050505050565b6001600160a01b0386811682528516602082015260a0604082018190526000906120eb90830186611da6565b82810360608401526120fd8186611da6565b905082810360808401526121118185611a39565b98975050505050505050565b60006020828403121561212f57600080fd5b81516119f5816119c2565b600060033d11156121535760046000803e5060005160e01c5b90565b600060443d10156121645790565b6040516003193d81016004833e81513d67ffffffffffffffff816024840111818411171561219457505050505090565b82850191508151818111156121ac5750505050505090565b843d87010160208285010111156121c65750505050505090565b6121d560208286010187611ae5565b509095945050505050565b6001600160a01b03868116825285166020820152604081018490526060810183905260a06080820181905260009061221a90830184611a39565b979650505050505050565b634e487b7160e01b600052603160045260246000fdfe1799cf914cb0cb442ca7c7ac709ee40d0cb89e87351dc08d517fbda27d50c68ba2646970667358221220600fa137c60a69d2d5503b57dc2493346d9aed313dbb302d56d0b9b2b84580ff64736f6c63430008140033",
  "linkReferences": {},
  "deployedLinkReferences": {}
}